S00B00004C43442E7372656346
S11300007AC000000C9479080C94020995C0000091
S113001093C000000C94220B8FC000008DC0000020
S11300208BC0000089C0000087C0000085C00000AC
S113003083C0000081C000007FC000007DC00000BC
S11300407BC0000079C0000077C0000075C00000CC
S113005073C0000071C000006FC000006DC00000DC
S11300606BC0000069C0000067C0000065C00000EC
S113007063C0000061C000005FC000005DC00000FC
S11300805BC0000059C0000057C0000055C000000C
S113009053C0000051C000004FC000004DC000001C
S11300A04BC0000049C0000047C0000045C000002C
S11300B043C0000041C000003FC000003DC000003C
S11300C03BC0000039C0000037C0000035C000004C
S11300D033C0000031C000002FC000002DC000005C
S11300E02BC00000BF07C107C307C507C707C9075F
S11300F0CB07CC07CD0711241FBECFEFD1E2DEBF63
S1130100CDBF00E00CBF17E0A0E0B2E0E8E0FDE105
S113011000E00BBF02C007900D92AA36B107D9F7D1
S113012027E0AAE6B7E001C01D92A63FB207E1F7B7
S11301300E94F10A0C94820E63CF0C94610E089510
S11301400C94510E089542E050E06EE571E080E1B8
S113015092E0F3DF42E050E068E671E08EE092E086
S1130160ECDF42E050E062E771E08CE092E0E5DF32
S113017042E050E06CE771E08AE092E0DEDF46E0C6
S113018050E060E073E084E092E0D7DF42E050E0CA
S113019060EE72E082E092E0D0DF48E750E066E88B
S11301A071E08EE797E0C9DF60910A0270910B025B
S11301B042E050E08CE797E0C0DF42E050E06AE9BB
S11301C071E08AE797E0B9DF42E050E064EA71E069
S11301D088E797E0B2DF42E050E06AEE71E086E73C
S11301E097E0ABDF42E050E066ED71E084E797E032
S11301F0A4DF42E050E060EE71E082E797E09DDF2B
S113020042E050E060EF72E080E092E096DF42E08E
S113021050E06EEA71E080E797E08FDF42E050E063
S113022068EB71E08EE697E088DF42E050E062EC34
S113023071E08CE697E081CF089582B985B18B7F18
S113024085B985B18D7F85B985B1816085B981EE28
S113025094E00197F1F700C0000085B18E7F85B965
S1130260089582B985B1846085B985B18D7F85B9DA
S113027085B1816085B981EE94E00197F1F700C002
S1130280000085B18E7F85B9089588E3D6DF8CE0C0
S1130290D4DF86E0D2DF81E0D0CF0895EF92FF92E1
S11302A00F931F93CF93DF937C01FC0101900020F7
S11302B0E9F731978F01081B190BC0E0D0E006C0A5
S11302C0F701EC0FFD1F8081CCDF2196C017D10709
S11302D0BCF3DF91CF911F910F91FF90EF900895A0
S11302E08093020184B3877F84BB84B38F7E84BBF5
S11302F084B3806284BB83EC99E00197F1F700C07A
S1130300000084B38F7D84BB08958093020184B37D
S1130310886084BB84B38F7E84BB84B3806284BBD7
S113032083EC99E00197F1F700C0000084B38F7D5E
S113033084BB089588E3D4DF8CE0D2DF86E0D0DF8D
S113034081E0CECF0895EF92FF920F931F93CF9346
S1130350DF937C01FC0101900020E9F731978F01C4
S1130360081B190BC0E0D0E006C0F701EC0FFD1F1D
S11303708081CBDF2196C017D107BCF3DF91CF91E9
S11303801F910F91FF90EF900895BC0120E030E0A1
S113039080E090E00FC0F901EE0FFF1FE20FF31FA2
S11303A0EE0FFF1FE60FF71F4081442331F0019643
S11303B02F5F3F4F2431310574F308951092C50027
S11303C083E38093C40088E18093C10086E0809336
S11303D0C2000895DC01FC0101900020E9F7319787
S11303E0AF01481B590B20E030E00CC09091C000D5
S11303F095FFFCCFFD01E20FF31F90819093C6009F
S11304002F5F3F4F241735078CF308959091C00058
S113041095FFFCCF8093C60008958091C000882387
S1130420E4F78091C6000895EF92FF921F93CF9353
S1130430DF93CDB7DEB72A970FB6F894DEBF0FBEB1
S1130440CDBFE12CF12C8091C0008823E4F71091FA
S1130450C600812FDBDF1D3011F01A3061F4E1E0BA
S1130460F0E0EC0FFD1FEE0DFF1D1082CE01019692
S11304700E94510B0BC0E1E0F0E0EC0FFD1FEE0D0C
S1130480FF1D10838FEFE81AF80ADDCF2A960FB606
S1130490F894DEBF0FBECDBFDF91CF911F91FF90C7
S11304A0EF900895CF92DF92EF92FF920F931F93F4
S11304B0CF93DF9342E050E060EE71E082E797E093
S11304C03FDE42E050E06EE571E080E192E038DE2C
S11304D042E050E068E671E08EE092E031DE42E016
S11304E050E06CE771E08AE092E02ADE48E750E0F1
S11304F066E871E08EE797E023DE42E050E060E9D1
S113050071E08CE797E01CDE42E050E06AE971E0BC
S11305108AE797E015DE42E050E064EA71E088E79C
S113052097E00EDE42E050E06AEE71E086E797E085
S113053007DE42E050E066ED71E084E797E000DE1C
S113054042E050E06EEA71E080E797E0F9DD42E0D6
S113055050E062EC71E08CE697E0F2DD20917C07DC
S113056030917D0780910A0290910B022817390778
S1130570D9F481E295E02EDF80E292E02BDF81E086
S11305805CDE80E85ADE8CE392E088DE87EA91E65E
S11305900197F1F700C0000042E050E060EE71E026
S11305A082E797E0CADDE4C086E492E013DF81E0ED
S11305B044DE80E842DE83E692E070DE87EA91E67C
S11305C00197F1F700C000008FE692E003DF2CDF13
S11305D06C0184E892E0FEDE27DF7C0187E992E08B
S11305E0F9DE8EE797E0D1DE8C01C0E0D0E00FC0E9
S11305F014DFF801EE0FFF1FE00FF11FEE0FFF1FD6
S1130600E258F84FEC0FFD1F808300DF2196C630BF
S1130610D10574F38091100290911102C89EA0013B
S1130620C99E500DD89E500D112420910E02309178
S11306300F02E29EC001E39E900DF29E900D1124E4
S113064096012E0D3F1D60917C0770917D07260F4A
S1130650371F30937D0720937C0720917A073091D0
S11306607B07C20ED31ED0927B07C0927A072091DB
S1130670780730917907E20EF31EF0927907E09241
S1130680780720917607309177072F5F3F4F30939B
S113069077072093760720917407309175072F5FB1
S11306A03F4F3093750720937407840F951F209153
S11306B0700730917107280F391F30937107209309
S11306C0700720916C0730916D07820F931F9093F0
S11306D06D0780936C0748E750E066E871E08EE7A9
S11306E097E02BDD60910A0270910B0242E050E02A
S11306F08CE797E022DD42E050E06AE971E08AE7A6
S113070097E01BDD42E050E064EA71E088E797E09F
S113071014DD42E050E06AEE71E086E797E00DDD1B
S113072042E050E066ED71E084E797E006DD42E0E8
S113073050E06EEA71E080E797E0FFDC42E050E0D1
S113074062EC71E08CE697E0F8DC81E295E042DE51
S11307508BEA92E03FDE81E070DD80E86EDD88ECBC
S113076092E09CDD87EA91E60197F1F700C0000072
S1130770DF91CF911F910F91FF90EF90DF90CF9079
S11307800895CF92DF92EF92FF920F931F93CF932E
S1130790DF9342E050E060EE71E082E797E0D0DC66
S11307A042E050E06CE771E08AE092E0C9DC48E79F
S11307B050E066E871E08EE797E0C2DC42E050E08A
S11307C060E971E08CE797E0BBDC42E050E06AE965
S11307D071E08AE797E0B4DC42E050E064EA71E05B
S11307E088E797E0ADDC42E050E06AEE71E086E72E
S11307F097E0A6DC42E050E066ED71E084E797E024
S11308009FDC20917C0730917D0780910A029091B2
S11308100B022817390741F442E050E060EE71E022
S113082082E797E08ADCA8C083ED92E0D3DD81E023
S113083004DD80E802DD83E692E030DD87EA91E6BC
S11308400197F1F700C000008FE692E0C3DDECDD14
S11308506C0184E892E0BEDDE7DD7C0187E992E08B
S1130860B9DD8EE797E091DD8C01C0E0D0E00FC0E8
S1130870D4DDF801EE0FFF1FE00FF11FEE0FFF1F95
S1130880E258F84FEC0FFD1F8083C0DD2196C6307F
S1130890D10574F396012E0D3F1D80917C07909134
S11308A07D07821B930B90937D0780937C07809137
S11308B07A0790917B078C199D0990937B0780930D
S11308C07A0780917807909179078E199F09909300
S11308D0790780937807809176079091770701973D
S11308E090937707809376078091740790917507AA
S11308F00197909375078093740748E750E066E882
S113090071E08EE797E019DC60910A0270910B02A6
S113091042E050E08CE797E010DC42E050E06AE906
S113092071E08AE797E009DC42E050E064EA71E0B4
S113093088E797E002DC42E050E06AEE71E086E787
S113094097E0FBDB42E050E066ED71E084E797E07E
S1130950F4DB81E295E03EDD80EF92E03BDD81E077
S11309606CDC80E86ADC83E193E098DC87EA91E65A
S11309700197F1F700C00000DF91CF911F910F9113
S1130980FF90EF90DF90CF9008958DE193E022DD0A
S113099088E393E01FDD41DD813319F0823319F0E0
S11309A004C080CD0895EDCE089583E593E012CD83
S11309B008950F931F93CF93DF9300D01F92CDB769
S11309C0DEB742E050E060EF72E080E092E0B8DB36
S11309D0809101028F93809100028F9381E693E0CE
S11309E09F938F938E010F5F1F4F1F930F937ED69C
S11309F084E693E0EFDCC801EDDC81E295E0EADC1B
S1130A000F900F900F900F900F900F900F900F90EA
S1130A100F900F90DF91CF911F910F910895EF9256
S1130A20FF920F931F93CF93DF93CDB7DEB72A972F
S1130A300FB6F894DEBF0FBECDBF42E050E06AE9C6
S1130A4071E08AE797E07CDB42E050E064EA71E021
S1130A5088E797E075DB80917B078F9380917A0715
S1130A608F9301E613E01F930F93CE0101967C014F
S1130A709F938F933BD6809179078F9380917807CA
S1130A808F931F930F938E010A5F1F4F1F930F9332
S1130A902DD681E295E09EDC8DE793E09BDCC701D7
S1130AA099DC81E295E096DC80E993E093DCC8016F
S1130AB091DC81E295E08EDC0FB6F894DEBF0FBEC8
S1130AC0CDBF2A960FB6F894DEBF0FBECDBFDF911F
S1130AD0CF911F910F91FF90EF900895CF92DF92E5
S1130AE0EF92FF920F931F93CF93DF9300D01F9247
S1130AF0CDB7DEB742E050E066ED71E084E797E001
S1130B001FDB809175078F93809174078F9381E623
S1130B1093E09F938F938E010F5F1F4F1F930F934B
S1130B20E5D581EA93E056DCC80154DC81E295E026
S1130B3051DC48E750E066E871E08EE797E000DBBF
S1130B408EE797E022DC6C010F900F900F900F90CE
S1130B500F900F90E12CF12C1BC0F701EE0FFF1F3B
S1130B60EE0DFF1DEE0FFF1FE258F84FE00FF11FCF
S1130B7080814CDC0F5F1F4F02C000E010E00630A4
S1130B8011055CF389EE96E025DC8FEFE81AF80A8C
S1130B90EC14FD0494F30F900F900F900F90DF91DD
S1130BA0CF911F910F91FF90EF90DF90CF90089518
S1130BB0EF92FF920F931F93CF93DF93CDB7DEB7DE
S1130BC060970FB6F894DEBF0FBECDBF42E050E091
S1130BD068EB71E08EE697E0B3DA42E050E062EC55
S1130BE071E08CE697E0ACDA80916F078F93809187
S1130BF06E078F9301E613E01F930F93CE010196C6
S1130C007C019F938F9372D580916D078F93809110
S1130C106C078F931F930F938E01075F1F4F1F93D2
S1130C200F9364D582EC93E0D5DBC701D3DB81E27B
S1130C3095E0D0DB8FED93E0CDDBC801CBDB81E227
S1130C4095E0C8DB0FB6F894DEBF0FBECDBF60964B
S1130C500FB6F894DEBF0FBECDBFDF91CF911F91C9
S1130C600F91FF90EF900895CF92DF92EF92FF9251
S1130C700F931F93CF93DF9300D01F92CDB7DEB7AE
S1130C8042E050E06AEE71E086E797E059DA80913D
S1130C9077078F93809176078F9381E693E09F93F4
S1130CA08F938E010F5F1F4F1F930F931FD581E00A
S1130CB094E090DBC8018EDB81E295E08BDB48E7B2
S1130CC050E066E871E08EE797E03ADA8EE797E065
S1130CD05CDB6C010F900F900F900F900F900F90B2
S1130CE0E12CF12C1BC0F701EE0FFF1FEE0DFF1DD1
S1130CF0EE0FFF1FE258F84FE00FF11F808186DBF3
S1130D000F5F1F4F02C000E010E0063011055CF3D6
S1130D1089EE96E05FDB8FEFE81AF80AEC14FD0425
S1130D2094F30F900F900F900F90DF91CF911F913C
S1130D300F91FF90EF90DF90CF9008950F931F9342
S1130D40CF93DF9300D000D0CDB7DEB746E050E0BC
S1130D5060E073E084E092E0F3D942E050E060EEBA
S1130D6072E082E092E0ECD942E050E060EF72E0A1
S1130D7080E092E0E5D98CE194E02CDB00E010E027
S1130D800BC04BDBE1E0F0E0EC0FFD1FE00FF11FC7
S1130D9080833CDB0F5F1F4F0630110594F380E026
S1130DA090E00EC0FC01EC5FFD4F3081E1E0F0E02B
S1130DB0EC0FFD1FE80FF91F2081321307C00196C5
S1130DC0863091057CF381E090E002C080E090E001
S1130DD0019709F03FC020910202309103028091F3
S1130DE00002909101022817390739F481E295E055
S1130DF0F1DA80E494E0EEDA33C081E295E0EADAF5
S1130E008FE794E0E7DA10DB2091000230910102D1
S1130E10820F931F20910202309103022817390791
S1130E203CF481E295E0D6DA8CEA94E0D3DA18C097
S1130E30909301028093000242E050E060EF72E080
S1130E4080E092E07AD981E295E0C4DA87EE94E01A
S1130E50C1DA06C081E295E0BDDA8AE095E0BADA4B
S1130E6026960FB6F894DEBF0FBECDBFDF91CF91AB
S1130E701F910F9108950F931F93CF93DF9300D089
S1130E801F92CDB7DEB742E050E060EE71E082E73A
S1130E9097E056D9809173078F93809172078F934F
S1130EA081E693E09F938F938E010F5F1F4F1F93F3
S1130EB00F931CD484E295E08DDAC8018BDA81E2C9
S1130EC095E088DA0F900F900F900F900F900F908D
S1130ED00F900F900F900F90DF91CF911F910F9172
S1130EE0089542E050E06CE771E08AE092E028D98E
S1130EF042E050E060E971E08CE797E021D920916D
S1130F007C0730917D0780910A0290910B0228178B
S1130F10390721F480E495E05DCA08958DE495E0F5
S1130F2059CA08958EE595E055DA88E895E052DAD5
S1130F308CE995E04FDA83EB95E04CDA89ED95E0A6
S1130F4049DA86EF95E046DA80E196E043DA86E214
S1130F5096E040DA8BE496E03DDA8AE696E03ADA07
S1130F6085E896E037DA59DA90E0FC01F197E93048
S1130F70F105A0F48827EE58FF4F8F4F8AC305CDA3
S1130F8008954DCD089514CE0895A8CD0895D6CED4
S1130F9008950FCD08956FDF67DEA3DF83E593E047
S1130FA019CA0895E4E0F1E08081806F8083808134
S1130FB0887F8083E5E0F1E0808187608083089505
S1130FC0CF93DF93CDB7DEB72E970FB6F894DEBF7D
S1130FD00FBECDBF88E0E2E1F2E0DE0111960190A0
S1130FE00D928A95E1F786E0EAE1F2E0DE011996D6
S1130FF001900D928A95E1F760E070E08FEF9FEF2A
S11310006BC0A5E0B1E04C91FB01EE0FFF1F21E0A6
S113101030E02C0F3D1FE20FF31F21E030E0008091
S113102002C0220F331F0A94E2F7209524232C9345
S113103040E050E032C020910301FA01EE0FFF1F9F
S1131040A1E0B0E0AC0FBD1FEA0FFB1FA085B18586
S113105030E00A2E02C0359527950A94E2F720FD68
S11310601AC0FB01EE0FFF1F21E030E02C0F3D1FE3
S1131070E20FF31F80819181079711F4119749F0D2
S1131080CB01880F991F860F971F840F951F019618
S113109002C080E090E04F5F5F4F433051055CF247
S11310A0A5E0B1E04C91FB01EE0FFF1F21E030E021
S11310B02C0F3D1FE20FF31F21E030E0008002C03F
S11310C0220F331F0A94E2F7242B2C938F3F3FEF18
S11310D0930731F46F5F7F4F643071050CF491CF47
S11310E02E960FB6F894DEBF0FBECDBFDF91CF9121
S11310F008951F920F920FB60F9211240BB60F9200
S11311002F933F934F935F936F937F938F939F930B
S1131110AF93BF93EF93FF9380916B0781115FC0EF
S113112081E080936B0788B1816088B987EA91E692
S11311300197F1F700C0000088B18E7F88B989EF6C
S113114090E00197F1F700C0000080E876D888E9C4
S113115096E0A4D880EC71D88BEA96E09FD887EA11
S113116091E60197F1F700C0000088B1846088B966
S11311709FEB27E289E0915020408040E1F700C0D6
S1131180000081E05AD880E858D885EB96E086D8EC
S113119087EA91E60197F1F700C0000088B18B7FE0
S11311A088B988B1886088B99FE72AE186E09150C0
S11311B020408040E1F700C0000081E03ED880E894
S11311C03CD882EC96E06AD887EA91E60197F1F779
S11311D000C0000088B1877F88B910926B07FF9127
S11311E0EF91BF91AF919F918F917F916F915F919B
S11311F04F913F912F910F900BBE0F900FBE0F9008
S11312001F9018951F920F920FB60F9211242F93CF
S11312108F939F9380916A0781112FC081E08093FF
S11312206A0788B1816088B987EA91E60197F1F786
S113123000C0000088B18E7F88B988B1846088B905
S11312409FEB27E289E0915020408040E1F700C005
S1131250000088B18B7F88B988B1886088B99FE71E
S11312602AE186E0915020408040E1F700C0000070
S113127088B1877F88B910926A079F918F912F91C7
S11312800F900FBE0F901F901895CF92DF92EF92A0
S1131290FF920F931F93CF93DF93CDB7DEB72E97B3
S11312A00FB6F894DEBF0FBECDBFE2E0F1E080815F
S11312B08160808381E014D880E80E941D018FEC56
S11312C096E041D887EA91E60197F1F700C0000063
S11312D08EED96E038D874DE8C0102C071DE8C018C
S11312E00F3F9FEF1907D1F31F930F930F2EF1E6D2
S11312F0EF2EF3E0FF2EF02DFF92EF92CE01019638
S11313006C019F938F93F2D1C6011DD880EC0E948B
S113131070012CED35E0029FC001039F900D129FD8
S1131320900D11249F938F93FF92EF927E0194E08E
S1131330E90EF11CFF92EF92D9D18BEE96E003D81F
S1131340C70101D82FE74AE186E0215040408040A0
S1131350E1F700C0000081E00E94700180E80E9473
S1131360700186EF96E00E94A3012ADE7C010FB68D
S1131370F894DEBF0FBECDBF02C022DE7C019FEF1A
S1131380E916F906D1F3FF92EF9281E693E09F9379
S11313908F936E012CE0C20ED11CDF92CF92A6D1A6
S11313A080EC0E947001C6010E94A3014FE78AE10C
S11313B096E0415080409040E1F700C000000F905B
S11313C00F900F900F900F900F9021E0E216F10410
S11313D009F0CDC081E00E94700180E80E94700194
S11313E089E097E00E94A30120E030E01AC081B3B5
S11313F0826081BB4FE78AE196E041508040904093
S1131400E1F700C0000081B38D7F81BB4FE38DE025
S113141093E0415080409040E1F700C000002F5F0E
S11314203F4F233031051CF380EC0E9470018CE1A6
S113143097E00E94A3012FE74AE186E02150404053
S11314408040E1F700C0000042E050E062E771E054
S11314508CE092E00E94A00042E050E060EF72E075
S113146080E092E00E94A00042E050E06EEA71E069
S113147080E797E00E94A00042E050E068EB71E052
S11314808EE697E00E94A00020910C0230910D029C
S1131490029FC001039F900D129F900D1124209173
S11314A0000230910102201B310B30930102209382
S11314B0000220916E0730916F07280F391F309377
S11314C06F0720936E072091700730917107820F88
S11314D0931F909371078093700742E050E060EF90
S11314E072E080E092E00E949D0042E050E06EEAEB
S11314F071E080E797E00E949D0042E050E068EBD5
S113150071E08EE697E00E949D0081E00E947001E8
S113151080E80E9470018EE297E00E94A30120E01F
S113152030E01AC081B3806281BB9FE34DE083E069
S1131530915040408040E1F700C0000081B38F7DAE
S113154081BB9FE74AE186E0915040408040E1F74B
S113155000C000002F5F3F4F201731071CF380ECC1
S11315600E94700183E497E00E94A3012BC092E0E3
S1131570E916F104A1F481E00E94700180E80E9460
S113158070018EE497E00E94A3012FE34DE083E015
S1131590215040408040E1F700C0000013C081E0CA
S11315A00E94700180E80E94700183E593E00E942C
S11315B0A3019FE32DE043E0915020404040E1F738
S11315C000C000002E960FB6F894DEBF0FBECDBF4C
S11315D0DF91CF911F910F91FF90EF90DF90CF900B
S11315E008950E94DE018FEF84B981B980930101CF
S11315F083BB80BB87B18C6087B987B1816087B9B1
S11316008BB183608BB98AB18E7F8AB98DB38361C4
S11316108DBBE9E6F0E0808182608083AAE6B0E0D9
S11316208C9182608C9380818860808378940E94FE
S113163045010E949A01B6DC0E94A3000E94DE01CB
S113164071DCFCCF1F920F920FB60F9211240BB6D0
S11316500F922F933F934F935F936F937F938F9347
S11316609F93AF93BF93EF93FF930FDEFF91EF919F
S1131670BF91AF919F918F917F916F915F914F91A6
S11316803F912F910F900BBE0F900FBE0F901F90A4
S11316901895EE0FFF1F881F8BBF0790F691E02D62
S11316A01994FC0188279927E89421912032E9F3C1
S11316B0293010F02E30C8F32B3239F02D3231F4AA
S11316C0689403C00BD0820F911D219120532A30BE
S11316D0C8F31EF4909581959F4F08957AE0979FE3
S11316E0902D879F802D910D112408950F931F93A2
S11316F0CF93DF93CDB7DEB72E970FB6F894DEBF46
S11317000FBECDBF0E891F8986E08C831A8309839F
S11317108FEF9FE79E838D83AE01465E5F4F688D9A
S1131720798DCE01019610D0EF81F885E00FF11F7D
S113173010822E960FB6F894DEBF0FBECDBFDF9198
S1131740CF911F910F9108952F923F924F925F92E4
S11317506F927F928F929F92AF92BF92CF92DF92BD
S1131760EF92FF920F931F93CF93DF93CDB7DEB722
S11317702B970FB6F894DEBF0FBECDBF6C017B0173
S11317808A01FC0117821682838181FFBFC1CE01C9
S113179001963C01F6019381F70193FD859193FF36
S11317A081917F01882309F4ADC1853239F493FD19
S11317B0859193FF81917F01853221F4B60190E0F8
S11317C0D6D1E8CF912C212C312CFFE1F315D8F0A0
S11317D08B3279F038F4803279F08332A1F4232DFE
S11317E020611DC08D3261F0803369F4232D2160A6
S11317F016C0832D8260382EE32DE4603E2E2AC06D
S1131800F32DF8601DC037FC2DC020ED280F2A30C1
S113181040F08E32B9F436FC75C1232D2064322E8B
S113182019C036FE06C08AE0989E200D1124922E1F
S113183011C0EAE02E9E200D1124222EF32DF06219
S11318403F2E08C08C3621F4832D8068382E02C0C8
S1131850883641F4F70193FD859193FF81917F01CF
S11318608111B3CF982F9F7D9554933028F40C5F4A
S11318701F4F9FE399830DC0833631F0833771F096
S1131880833509F055C020C0F801808189830E5F3B
S11318901F4F88248394912C530112C02801F2E035
S11318A04F0E511CF801A080B18036FE03C0692D93
S11318B070E002C06FEF7FEFC5014ED14C01820191
S11318C0F32DFF773F2E15C0280122E0420E511C54
S11318D0F801A080B18036FE03C0692D70E002C01B
S11318E06FEF7FEFC5012DD14C01F32DF0683F2E32
S11318F0820133FC19C0822D90E088169906A0F469
S1131900B60180E290E033D12A94F5CFF50137FC9B
S1131910859137FE81915F01B60190E028D12110B5
S11319202A9421E0821A91088114910479F7E1C084
S1131930843611F0893639F5F80137FE07C0608125
S11319407181828193810C5F1F4F08C06081718116
S1131950072E000C880B990B0E5F1F4FF32DFF769B
S11319603F2E97FF09C090958095709561957F4FA4
S11319708F4F9F4FF0683F2E2AE030E0A30133D110
S1131980882E861844C0853731F4232D2F7EB22E3D
S11319902AE030E025C0932D997FB92E8F36C1F00F
S11319A018F4883579F0AEC0803719F0883721F003
S11319B0A9C0E92FE061BE2EB4FE0DC0FB2DF4607A
S11319C0BF2E09C034FE0AC0292F2660B22E06C0DD
S11319D028E030E005C020E130E002C020E132E040
S11319E0F801B7FE07C060817181828193810C5F29
S11319F01F4F06C06081718180E090E00E5F1F4F31
S1131A00A301F1D0882E8618FB2DFF773F2E36FEDA
S1131A100DC0232D2E7FA22E891458F434FE0BC042
S1131A2032FC09C0832D8E7EA82E05C0B82CA32CB1
S1131A3003C0B82C01C0B92CA4FE0FC0FE01E80DF0
S1131A40F11D8081803321F49A2D997EA92E09C03D
S1131A50A2FE06C0B394B39404C08A2D867809F01C
S1131A60B394A3FC10C0A0FE06C0B21480F4280CEA
S1131A70922C9B180DC0B21458F4B60180E290E089
S1131A8076D0B394F8CFB21418F42B1802C0982C63
S1131A90212CA4FE0FC0B60180E390E068D0A2FE22
S1131AA016C0A1FC03C088E790E002C088E590E07E
S1131AB0B6010CC08A2D867851F0A1FE02C08BE2DB
S1131AC001C080E2A7FC8DE2B60190E050D08914F9
S1131AD030F4B60180E390E04AD09A94F8CF8A9427
S1131AE0F301E80DF11D8081B60190E040D0811032
S1131AF0F6CF222009F44ECEB60180E290E037D032
S1131B002A94F7CFF6018681978102C08FEF9FEF69
S1131B102B960FB6F894DEBF0FBECDBFDF91CF91E9
S1131B201F910F91FF90EF90DF90CF90BF90AF90F7
S1131B309F908F907F906F905F904F903F902F90E9
S1131B400895FC010590615070400110D8F780950C
S1131B5090958E0F9F1F0895FC0161507040019075
S1131B600110D8F7809590958E0F9F1F08950F93BD
S1131B701F93CF93DF93FB01238121FD03C08FEFDC
S1131B809FEF2CC022FF16C04681578124813581E6
S1131B904217530744F4A081B1819D012F5F3F4F49
S1131BA0318320838C93268137812F5F3F4F378386
S1131BB0268314C08B01EC01FB010084F185E02D28
S1131BC01995892BE1F6D80116968D919C9117975A
S1131BD0019617969C938E931697CE01DF91CF9121
S1131BE01F910F910895FA01AA27283051F120314D
S1131BF081F1E8946F936E7F6E5F7F4F8F4F9F4F9D
S1131C00AF4FB1E03ED0B4E03CD0670F781F891FDE
S1131C109A1FA11D680F791F8A1F911DA11D6A0FAC
S1131C20711D811D911DA11D20D009F468943F915F
S1131C302AE0269F11243019305D3193DEF6CF015E
S1131C400895462F4770405D4193B3E00FD0C9F724
S1131C50F6CF462F4F70405D4A3318F0495D31FD91
S1131C604052419302D0A9F7EACFB4E0A6959795E4
S1131C70879577956795BA95C9F7009761057105BA
S1131C8008959B01AC010A2E069457954795379504
S1131C902795BA95C9F7620F731F841F951FA01D5E
S1131CA00895DC01CB01FC01F999FECF06C0F2BD19
S1131CB0E1BDF89A319600B40D9241505040B8F706
S1131CC00895DC01A40FB51F4150504040F0CB01F2
S1131CD0840F951F2E9105D041505040D8F7089598
S1131CE0262FF999FECF92BD81BDF89A019700B4D1
S1131CF0021639F01FBA20BD0FB6F894FA9AF99A71
S10B1D000FBE0895F894FFCF13
S1131D08320032003435363738396400DC05204E69
S1131D181027040005000600070002000100000067
S1131D285061726B2069732066756C6C2063616EF8
S1131D382774207265676973746572005041524B49
S1131D482046554C4C005245474953544552204966
S1131D584E434F4D494E4720544F555249535453BF
S1131D680D0A005245474953544552494E47004EBF
S1131D78756D626572206F66206368696C6472654C
S1131D886E3A20004E756D626572206F662041645C
S1131D98756C74733A2000456E746572204E756DC7
S1131DA8626572706C6174653A2000524547495304
S1131DB854524154494F4E20535543434553534677
S1131DC8554C2E2E2E0D0A00444F4E4520454E5498
S1131DD84552005245474953544552204F5554479C
S1131DE84F494E4720544F5552495354530D0A00F6
S1131DF8524547495354524154494F4E2053554331
S1131E084345535346554C2E2E204259452E2E2ECB
S1131E180D0A00444F4E45204558495400312920A5
S1131E28526567697374657220496E636F6D696E74
S1131E3867206361720D0A0032292052656769734D
S1131E48746572204F7574676F696E672043617299
S1131E580D0A00494E56414C494420494E505554A8
S1131E680025640052656D61696E696E6720626F52
S1131E7874746C6573206172653A2E2E0043686928
S1131E886C6472656E20696E207061726B3A200012
S1131E984164756C747320696E207061726B3A20AA
S1131EA80056656869636C65732020696E7369649C
S1131EB86520746865207061726B206172653A2EC2
S1131EC82E00467269646765206D6F6E65792063BC
S1131ED86F6C6C65637465643A20554758200045F7
S1131EE86E7472616E6365206665652066756E64DE
S1131EF820636F6C6C65637465643A205547582099
S1131F08004472697665727320696E20746865206E
S1131F187061726B206172653A2E2E00456E74658D
S1131F287220796F7572206D61696E74656E616E69
S1131F3863652070617373776F72643A200D0A00C9
S1131F4846726964676520616C72656164792066AC
S1131F58756C6C20746F2063617061636974792E89
S1131F6820596F752063616E277420616464206D45
S1131F786F726520626F74746C65732E0D0A004568
S1131F886E746572206E756D626572206F6620626C
S1131F986F74746C657320746F2061646420746F4B
S1131FA8206672696467653A200D0A00546F6F20D1
S1131FB86D616E792120456E746572206C6573734A
S1131FC820626F74746C65732E20596F7520636179
S1131FD86E27742065786365656420636170616346
S1131FE86974792E0D0A0046726964676520726502
S1131FF8706C656E69736865642073756363657373
S11320087366756C6C792E0D0A00496E636F727273
S11320186563742070617373776F72642021212162
S1132028200D0A00436172732077616974696E67D1
S1132038206F757473696465206172653A2E2E0089
S11320485061726B2069662066756C6C0050617211
S11320586B206973206E6F742066756C6C000D0AB2
S11320682020202020202020515545454E20454C35
S1132078495A4142455448204E4154494F4E414CD7
S1132088205041524B0D0A0053656C6563742061FE
S11320986E206F7074696F6E3A0D0A00312E2052EB
S11320A86567697374657220546F757269737473A4
S11320B80D0A00322E546F7572697374732043616C
S11320C87465676F72697A656420627920616765EF
S11320D82067726F75700D0A00332E204D6F6E6580
S11320E87920636F6C6C6563746564206279207011
S11320F861726B0D0A00342E2056656869636C653D
S11321087320696E20746865207061726B0D0A0013
S1132118352E205265706C656E6973682066726925
S11321286467650D0A00362E204E756D626572204F
S11321386F6620426F74746C657320696E207468CE
S113214865206672696467650D0A00372E2043614D
S113215872732077616974696E67206F7574736927
S1132168646520676174650D0A00382E43686563E9
S11321786B206472697665727320696E207061726F
S11321886B200D0A00392E4973205061726B20664A
S1132198756C6C3F200D0A0020496E636F6D696E83
S11321A86720546F757269737420002056656869D6
S11321B8636C65200047415445204F50454E494EB5
S11321C847004741544520434C4F53494E47004725
S11321D8455420534F4D4520574154455200426FB2
S11321E874746C6573203F203A200042696C6C3A21
S11321F8205547582000312E20506179206361739F
S11322086820323A45584954004F70656E696E67C4
S1132218206D6F6E657920736C6F7400496E7365F9
S1132228727420796F7572206D6F6E6579004469D8
S11322387370656E73696E6720626F74746C65730E
S11322482E2E005468616E6B20796F752E005452DF
S1132258414E53414354494F4E2043414E43454C0C
S10D22684C454400303030303000A3
S9030000FC
